:020000040800F2
:1000000060040020AD010008531200086D110008C3
:100010005112000821050008AD140008000000007E
:10002000000000000000000000000000771200083F
:10003000230500080000000055120008791200088E
:10004000C7010008C7010008C7010008C701000870
:10005000C7010008C7010008C7010008C701000860
:10006000C7010008C7010008C7010008C701000850
:10007000C7010008C7010008C7010008C701000840
:10008000C7010008C7010008C70100080000000000
:10009000000000000000000000000000250500082E
:1000A000C701000819130008C7010008C7010008AC
:1000B000C7010008C7010008C7010008C701000800
:1000C000C7010008C7010008C7010008C7010008F0
:1000D000C7010008C7010008C701000800000000B0
:1000E000C7010008C7010008C701000800000000A0
:1000F000000000000000000000000000C701000830
:1001000000000000C7010008C7010008C70100087F
:1001100000000000000000000000000000000000DF
:10012000C7010008C7010008C7010008C70100088F
:10013000C7010008000000000000000000000000EF
:10014000000000000000000000000000C7010008DF
:10015000C7010008C7010008C7010008C70100085F
:10016000C7010008C70100080000000000000000EF
:10017000000000000000000000000000000000007F
:1001800000000000C701000800000000000000009F
:10019000C7010008C7010008DFF80CD000F0AEF975
:1001A00000480047ED14000860040020064880471E
:1001B00006480047FEE7FEE7FEE7FEE7FEE7FEE74C
:1001C000FEE7FEE7FEE7FEE7FD12000899010008E2
:1001D0002DE9F05F0546002092469B46884606467C
:1001E000814640241BE0284641464746224600F00F
:1001F000E0F853465A46C01A914110D311461846AA
:10020000224600F0C7F82D1A67EB01084F46224638
:100210000120002100F0BEF817EB00094E41201E1E
:10022000A4F10104DFDC484631462A464346BDE8D6
:10023000F09FD2B201E000F8012B491EFBD27047BB
:100240000022F6E710B513460A4604461946FFF7A2
:10025000F0FF204610BD2DE9FE4F81EA030404F0B3
:10026000004421F0004100944FF0000B23F00043C4
:1002700050EA01045ED052EA03045BD0C3F30A548F
:10028000C1F30A552C44A4F2F3340194A0FB0254A8
:10029000C1F3130141F48011C3F3130343F480133A
:1002A00001FB024400FB034E840A970A44EA81548E
:1002B00047EA8357A4FB076802958D0A05FB07856B
:1002C0004FEA932C04FB0C542705029D4FEA065875
:1002D00047EA1637B5EB08056EEB070C870E920E52
:1002E00047EA811742EA8312A7FB0201B6EB0B0132
:1002F00064EB00042B0D43EA0C335E1844EB1C50F6
:10030000DA465146E7FB0201C5F313044FEA0B330B
:1003100043EA14534FEA0432019C43EA0603A4F172
:100320000C040294009CCDE900B400F098F803B0EE
:10033000BDE8F08F00200146F9E70EB5C10F80EA55
:10034000E0700844CA07002140F233438DE80E00F4
:100350000A460B4600F083F803B000BD01F00043ED
:1003600030B421F0004150EA010206D00A0DA2F596
:100370006072C1F31301002A02DC30BC0020704718
:10038000440F44EAC104C100E01830BC00EBC25085
:1003900000F01FB8202A04DB203A00FA02F1002006
:1003A00070479140C2F1200320FA03F319439040B3
:1003B0007047202A04DB203A21FA02F0002170471E
:1003C00021FA02F3D040C2F12002914008431946BD
:1003D00070470029A8BF7047401C490008BF20F0A3
:1003E0000100704710B4B0FA80FC00FA0CF050EA3B
:1003F000010404BF10BC704749B1CCF1200421FABC
:1004000004F411FA0CF118BF012121430843A3EBB6
:100410000C01CB1D4FEA00614FEA102042BF0020C3
:1004200010BC704700EBC35010440029A4BF10BC9F
:100430007047401C490008BF20F0010010BC704705
:1004400010B5141E73F1000408DA401C41F10001DC
:1004500092185B411A4301D120F0010010BD2DE933
:10046000F04D92469B4611B1B1FA81F202E0B0FA2A
:1004700080F220329046FFF78DFF04460F4640EA97
:100480000A0041EA0B0153465A46084313D011466D
:1004900053EA010019D0C8F140025046FFF789FF26
:1004A00005460E46504659464246FFF773FF08433D
:1004B00005D0012004E020463946BDE8F08D00203B
:1004C000054346EAE0762C4337430A986305E40A7D
:1004D000A0EB08000022FD0A44EA47540A3002D586
:1004E00000200146E9E7010510196941DDE90845E9
:1004F00000196941BDE8F04DA2E70000064C074D28
:1005000006E0E06840F0010394E8070098471034E3
:10051000AC42F6D3FFF744FE181500083815000862
:10052000FEE77047202000F001B87047044910B57D
:100530000A68024202D00860FFF7F7FF10BD000012
:10054000143C01402DE9F84F00224FF0010803252B
:100550004FF00F0E0B6808FA02F42340A34271D14A
:100560004E68012E05D0022E03D0112E01D0122E7E
:1005700015D18668570005FA07FC26EA0C06D1F863
:100580000CC00CFA07FC4CEA060CC0F808C0466820
:10059000A6430C79C4F30014944034434460C66805
:1005A000570005FA07FC8C6826EA0C06BC40344369
:1005B000C4604C68022C01D0122C13D1D40800EB7B
:1005C0008404A346D4F8209054074FEAD46A0EFA64
:1005D0000AF629EA06090E6906FA0AF646EA090643
:1005E000CBF8206004680E7924EA0C0406F00306B8
:1005F000BE40264306604C68E40056D52E4C266863
:1006000046F480462660246822F0030604F4804401
:1006100000942A4C3444A446D4F808489607370F6F
:100620000EFA07F6B443264EB04201D1002615E07B
:10063000244EB04201D1012610E0234EB04202D137
:1006400002260BE031E0214EB04201D1032605E045
:100650001F4EB04201D1042600E00726BE402643CB
:10066000CCF808681B4E34684F689C43FF0300D5E4
:100670001C433460174E361D34684F689C43BF03DB
:1006800000D51C433460134E083634684F689C43D1
:10069000FF0200D51C4334600E4E0C3634684F68A0
:1006A0009C43BF0200D51C433460521C102AFFF447
:1006B00051AFBDE8F88F00004438024000300140DF
:1006C000000002400004024000080240000C02400A
:1006D00000100240003C01400069084000D00120A9
:1006E000704700000148806870470000100000203B
:1006F0000248816802781144816070471000002030
:100700000B4810B5016841F400710160016841F4C3
:1007100080610160016841F480710160032000F094
:100720006FF8002000F006F800F024F8002010BD5B
:10073000003C024070B50D4D04464FF47A712878A4
:10074000B1FBF0F00A490968B1FBF0F000F0E4FAFF
:1007500048B9102C07D200222146501E00F030F874
:1007600000206C6070BD012070BD000010000020F2
:100770001C0000200A4808B5016841F4804101606E
:10078000006800F4804000900548001F016841F0B7
:1007900080510160006800F08050009008BD0000AA
:1007A00044380240002809DB00F01F02012191407B
:1007B0004009800000F1E020C0F8001170470000FF
:1007C000F0B40E4B1B680C46C3F30223C3F10705BC
:1007D000042D00D90425191D072901D2002300E0AA
:1007E000DB1E012606FA05F1491E214099409E4074
:1007F000761E16403143F0BC00F059BE0CED00E00F
:10080000064900F0070208684FF6FF03184040EA67
:100810000220034A10430860704700000CED00E01E
:100820000000FA052DE9F0470E46050065D0DFF817
:100830001481D8F80000F7B200F00F00B04207D2E0
:1008400088F80070D8F8000000F00F00B04254D1D2
:1008500028683D4C810712D5400703D5206840F435
:10086000E05020602878000703D5206840F46040FD
:1008700020602068A96820F0F000084320602878F4
:10088000C0072DD0304968680839012812D00228E5
:1008900013D0032811D00968890700292DDA2168AF
:1008A00021F0030101432160FFF71CFF814641F263
:1008B000883A0EE009688903EFE709688901ECE7E7
:1008C000FFF710FFA0EB0901514502D90320BDE855
:1008D000F0872068696800F00C00B0EB810FEFD161
:1008E000D8F80010404601F00F01B14207D9077057
:1008F000006800F00F00B04201D00120E7E728783F
:10090000400705D52068E96820F4E05008432060DE
:100910002878000706D52068296920F4604040EA5D
:10092000C100206000F018F82168084AC1F30311E3
:10093000515CC8400649086006480068FFF7FAFEA7
:100940000020C4E7003C02400838024008150008B7
:100950001C00002014000020154810B5006810F09D
:100960000C02144813D01449042A0FD0082A0ED1BF
:100970000F4C241F2268236802F03F025B0207D558
:100980002068C0F38810A0FB010106E0084610BDF6
:100990002168C1F38811A1FB00010023FFF718FCB7
:1009A0002168C1F30141491C4900B0FBF1F010BDC1
:1009B000083802400024F40040787D012DE9F84F0A
:1009C000040076D02078DFF838A3CE4DC00749D098
:1009D000DAF800105046C1F38101012908D00068FF
:1009E000C0F3810002280AD1281D0068400206D504
:1009F0002868800336D560680028E2D032E060685D
:100A0000B0F5803F10D0B0F5A02F286810D020F4AA
:100A100080302860286820F4802028606068A0B1B9
:100A2000FFF760FE06460CE0286840F48030F4E7EB
:100A300040F480202860F7E7FFF754FE801B64280D
:100A400073D828688003F7D50CE0FFF74BFE064605
:100A500005E000BFFFF746FE801B6428F0D8286839
:100A60008003F7D42078DFF8A08280074FF00009D8
:100A70003ED5DAF80010504611F00C0F09D000688E
:100A8000C0F3810002280BD19D48001F006840027E
:100A900006D42868800715D5E068012809D111E03F
:100AA000E068B8B10120C8F80000FFF71BFE064659
:100AB00005E020E1FFF716FE801B0228C0D8286859
:100AC0008007F7D52868216920F0F80040EAC100C6
:100AD00028600DE0C8F80090FFF704FE064604E029
:100AE000FFF700FE801B02281FD828688007F7D474
:100AF0002078000722D5824E844861696C3671B136
:100B000001210160FFF7EEFD074604E0FFF7EAFD73
:100B1000C01B022809D830688007F7D50EE0C0F85E
:100B20000090FFF7DFFD074605E082E0FFF7DAFD02
:100B3000C01B02287DD830688007F7D42078400792
:100B400068D5DFF8BCB100270BF1380BDBF80000EB
:100B5000C0000BD4DBF8001041F08051CBF800103E
:100B6000DBF80000012700F080500090684E3068EC
:100B7000C00510D4306840F480703060FFF7B2FDDB
:100B8000009005E0FFF7AEFD0099401A022850D80A
:100B90003068C005F6D55A4EA068683601280FD0D7
:100BA0000528306810D020F001003060306820F057
:100BB00004003060A068B8B1FFF794FD00900FE02A
:100BC000306840F00100F4E740F004003060F7E7DF
:100BD000FFF788FD0099411A41F28830814266D8BA
:100BE00030688007F4D50EE0FFF77CFD009007E049
:100BF000FFF778FD0099411A41F28830814256D8BA
:100C000030688007F4D42FB1DBF8001021F0805158
:100C1000CBF80010A069D0B3DAF800205146C2F337
:100C20008102022A4AD00228484607D0C8F860004C
:100C300000E03CE0FFF756FD04463BE04746C8F8BD
:100C40006000FFF74FFD064605E000BFFFF74AFDD5
:100C5000801B02282BD828688001F7D4D4E907012B
:100C60000843A16A2B4A490802EB0141626A41EA42
:100C70008211084394F82C1040EA01612048001FBB
:100C8000016001203866FFF72DFD044605E034E0E1
:100C9000FFF728FD001B022809D828688001F7D536
:100CA0002BE000BFFFF71EFD001B022802D9032026
:100CB000BDE8F88F28688001F4D41EE00128F7D041
:100CC0000868E26900F48001914214D1226A00F0C0
:100CD0003F0191420FD147F6C071626A01409142D3
:100CE00009D1A26A00F44031914204D1E16A00F0D6
:100CF0007060884201D00120DAE70020D8E70000C8
:100D0000083802400038024000004742800E474247
:100D1000007000400000FFFF10B5401EB0F1807F62
:100D200001D3012010BD4FF0E02460610F21601756
:100D300000F0BDFB0020A06107202061002010BD55
:100D40007047704770B590F83C20012A2CD00124E0
:100D500080F83C40022280F83D2003685A689D6874
:100D600022F070060A6832435A60104B02689A42B9
:100D70000ED0B2F1804F0BD00D4B9A4208D00D4BE4
:100D80009A4205D00C4B9A4202D00C4B9A4204D1A5
:100D9000496825F080031943916080F83D400021A7
:100DA00080F83C10084670BD022070BD0000014074
:100DB0000004004000080040000C004000400140DA
:100DC00010B5040003D094F83D0010B107E00120F5
:100DD00010BD002084F83C00204600F00DF80220F1
:100DE00084F83D00211D206800F09CFA012084F861
:100DF0003D00002010BD000008B500680B49884286
:100E000012D10B48016841F0010101600068002225
:100E100000F00100009011461920FFF7D1FCBDE859
:100E200008401920FFF7BEBC08BD000000000140CB
:100E3000443802400168CA6842F00102CA60006892
:100E4000816801F00701062903D0016841F0010122
:100E500001600020704770B5044690F83C000128FE
:100E600017D0012584F83C50022084F83D0020680A
:100E7000826822F0770222F47F428260086850285C
:100E800030D00DDC20284DD005DC98B310283BD1A4
:100E900048E0022070BD302844D0402834D139E0E9
:100EA000602828D0702806D0B0F5805F2CD0B0F52F
:100EB000005F29D10AE0CB68D1E90121206800F068
:100EC0007DFA2068816841F0770109E0CB68D1E9BB
:100ED0000121206800F072FA2068816841F48041A5
:100EE000816011E0CA684968206800F0BCFA5021AE
:100EF000206807E016E0CA684968206800F0C4FA74
:100F00006021206800F064FA84F83D50002084F8E5
:100F10003C0070BDCA684968206800F0A4FA40210E
:100F20002068EFE7226801461046EBE7704770B58E
:100F30000446006801694FF00005C943890715D4CC
:100F4000C168C943890711D4E91E016101202077D6
:100F5000206880698007204602D0FFF7E7FF04E0A1
:100F600000F098F8204600F096F82577206801698F
:100F7000C943490717D4C168C943490713D46FF05F
:100F800004010161022020772068806910F4407F0D
:100F9000204602D0FFF7CAFF04E000F07BF82046AD
:100FA00000F079F8257720680169C943090716D44C
:100FB000C168C943090712D46FF008010161042018
:100FC00020772068C0698007204602D0FFF7AEFF77
:100FD00004E000F05FF8204600F05DF82577206817
:100FE0000169C943C90617D4C168C943C90613D4E6
:100FF0006FF010010161082020772068C06910F4AB
:10100000407F204602D0FFF791FF04E000F042F855
:10101000204600F040F8257720680169C943C907D8
:1010200008D1C168C943C90704D1891E016120469E
:1010300000F032F820680169C943090609D4C16883
:10104000C943090605D46FF0800101612046FFF70E
:1010500077FE20680169C943490609D4C168C943BC
:10106000490605D46FF040010161204600F07DF88B
:1010700020680169C94389060BD4C168C943890640
:1010800007D46FF0200101612046BDE87040FFF7F2
:1010900058BE70BD7047704770B5184CA068642882
:1010A00027D3002520211648A560FFF715FB00B1C6
:1010B0000120616800EB4100606000F0CDF8FFF7AF
:1010C0003CF99FED101B53EC112BFFF7C4F89FED7B
:1010D0000F1B53EC112BFFF7BEF8FFF73FF9E06051
:1010E000606800F0B9F8102802DB0120207000E0F1
:1010F0002570A068401CA06070BD000000000020AA
:1011000000100240000000000000A03F00000000AE
:101110000000594070B5044690F83C00012812D0F8
:10112000012584F83C50022084F83D00204600F060
:1011300057F901004FF0000007D084F83D5084F8C3
:101140003C00012070BD022070BD2168CA6822F0F9
:101150004002CA602168CA6822F48042CA6084F8EA
:101160003D5084F83C00002070BD7047FEE7000051
:1011700000B587B014216846FFF762F81648016889
:1011800041F010010160016801F010010591016852
:1011900041F080010160016801F080010591016862
:1011A00041F0010101600068694600F0010005900E
:1011B0002020009009480190022002900848FFF783
:1011C000C1F9002211461720FFF7FAFA1720FFF79E
:1011D000E9FA07B000BD00003038024000003110CD
:1011E0000010024010B58CB00024059406940794BA
:1011F000142168460894FFF723F81448099412490B
:101200000A9401606321C0E9011440F2E731C0E9AA
:1012100003148021C0E90541FFF7D2FD4FF480504F
:10122000059005A90948FFF716FE0094694607488E
:101230000194FFF76FFF2020CDE9090409A90348B5
:10124000FFF780FD0CB010BD000001402000002021
:10125000FEE7704770470000024610B500200146C7
:101260005FF0010404FA01F31340CB40491C184419
:101270002029F7DB10BD7047FFF73ABA30B593B0BD
:1012800030216846FEF7DCFF14210CA8FEF7D8FFDA
:1012900018480025016841F080510160006800F0A5
:1012A000805011901448016841F440410160006889
:1012B000022400F44040119001200390102004907B
:1012C000009406940820CDE907506420CDE9090474
:1012D00004200B906846FFF771FB0CA90F2081E8F2
:1012E0003100E002CDE90F0503210CA8FFF79AFABF
:1012F00013B030BD4038024000700040054801681E
:1013000041F47001016003494FF0006080390860CA
:101310007047000088ED00E00148FFF708BE0000BC
:1013200020000020F0B502681D4B1E4C9F031E4D8F
:101330001E4E984207D0B84205D0A04203D0A84222
:1013400001D0B04204D122F0700C4A6842EA0C028B
:10135000984210D0B8420ED0A0420CD0A8420AD079
:10136000B04208D0124CA04205D0124CA04202D08C
:10137000114CA04203D122F44074CA6822434C6944
:1013800022F08002224302608A68C2620A68826296
:10139000984201D10969016301214161F0BD00005A
:1013A000000001400004004000080040000C004024
:1013B00000400140004401400048014010B58468ED
:1013C00042EA032224F47F440A432243826010BD90
:1013D000826822F070020A4342F007018160704780
:1013E00010B503689A6822F070044A68224322F01C
:1013F00007040A6822439A604A6812F00F0F30D13E
:101400001211082A2DD2DFE802F02C2C2C2C0B21F3
:1014100027040B69D1E902210068FFF7CFFF20E024
:101420000A68052A10D00268136A146A24F00104BD
:10143000146202689469096924F0F00444EA011115
:101440009161006803620CE0012010BD0A6989689F
:10145000006800F008F804E00A698968006800F094
:1014600013F8002010BD10B5036A046A24F00104CB
:101470000462846924F0F00444EA021423F00A02AE
:101480000A438461026210BD10B5036A23F01003A1
:1014900003628369046A23F4704343EA023224F04E
:1014A000A00343EA01118261016210BDFEE7090752
:1014B000090E002804DB00F1E02080F800147047DA
:1014C00000F00F0000F1E02080F8141D704702E0EA
:1014D00008C8121F08C1002AFAD1704770470020BF
:1014E00001E001C1121F002AFBD17047FFF708F984
:1014F000FFF7C4FEFFF73CFEFFF774FE0148FFF75D
:1015000099FCFEE720000020000000000000000021
:10151000010203040607080938150008000000202E
:1015200020000000CE1400085815000820000020FC
:1015300040040000DE14000800000000000000006D
:10154000000000000000000001000000100000008A
:08155000000000000024F4007B
:040000050800019955
:00000001FF
