:020000040800F2
:1000000010040020AD010008470B0008CD0A0008CD
:10001000450B0008B9020008ED0B000800000000C5
:100020000000000000000000000000004B0B000872
:10003000BB02000800000000490B00084D0B00083F
:10004000C7010008C7010008C7010008C701000870
:10005000C7010008C7010008C7010008C701000860
:10006000C7010008C7010008C7010008C701000850
:10007000C7010008C7010008C7010008C701000840
:10008000C7010008C7010008C70100080000000000
:10009000000000000000000000000000BD02000899
:1000A000C7010008C7010008C7010008C701000810
:1000B000C7010008C7010008C7010008C701000800
:1000C000C7010008C7010008C7010008C7010008F0
:1000D000C7010008C7010008C701000800000000B0
:1000E000C7010008C7010008C701000800000000A0
:1000F000000000000000000000000000C701000830
:1001000000000000C7010008C7010008C70100087F
:1001100000000000000000000000000000000000DF
:10012000C7010008C7010008C7010008C70100088F
:10013000C7010008000000000000000000000000EF
:10014000000000000000000000000000C7010008DF
:10015000C7010008C7010008C7010008C70100085F
:10016000C7010008C70100080000000000000000EF
:10017000000000000000000000000000000000007F
:1001800000000000C701000800000000000000009F
:10019000C7010008C7010008DFF80CD000F07AF8AA
:1001A000004800472D0C0008100400200648804736
:1001B00006480047FEE7FEE7FEE7FEE7FEE7FEE74C
:1001C000FEE7FEE7FEE7FEE7D10B00089901000815
:1001D0002DE9F05F0546002092469B46884606467C
:1001E000814640241BE0284641464746224600F00F
:1001F00041F853465A46C01A914110D31146184649
:10020000224600F028F82D1A67EB01084F462246D7
:100210000120002100F01FF817EB00094E41201EBD
:10022000A4F10104DFDC484631462A464346BDE8D6
:10023000F09FD2B201E000F8012B491EFBD27047BB
:100240000022F6E710B513460A4604461946FFF7A2
:10025000F0FF204610BD202A04DB203A00FA02F10C
:10026000002070479140C2F1200320FA03F31943A4
:1002700090407047202A04DB203A21FA02F0002146
:10028000704721FA02F3D040C2F1200291400843A6
:1002900019467047064C074D06E0E06840F0010340
:1002A00094E8070098471034AC42F6D3FFF778FF84
:1002B0004C0C00086C0C0008FEE77047202000F092
:1002C00001B87047044910B50A68024202D00860BC
:1002D000FFF7F7FF10BD0000143C01402DE9F84F77
:1002E00000224FF0010803254FF00F0E0B6808FAAB
:1002F00002F42340A34271D14E68012E05D0022E94
:1003000003D0112E01D0122E15D18668570005FAA0
:1003100007FC26EA0C06D1F80CC00CFA07FC4CEAE4
:10032000060CC0F808C04668A6430C79C4F3001454
:10033000944034434460C668570005FA07FC8C6853
:1003400026EA0C06BC403443C4604C68022C01D041
:10035000122C13D1D40800EB8404A346D4F82090C7
:1003600054074FEAD46A0EFA0AF629EA06090E691A
:1003700006FA0AF646EA0906CBF8206004680E7908
:1003800024EA0C0406F00306BE40264306604C68CF
:10039000E40056D52E4C266846F480462660246834
:1003A00022F0030604F4804400942A4C3444A4460A
:1003B000D4F808489607370F0EFA07F6B443264ECE
:1003C000B04201D1002615E0244EB04201D10126F1
:1003D00010E0234EB04202D102260BE031E0214E64
:1003E000B04201D1032605E01F4EB04201D10426E0
:1003F00000E00726BE402643CCF808681B4E346850
:100400004F689C43FF0300D51C433460174E361DD4
:1004100034684F689C43BF0300D51C433460134EBF
:10042000083634684F689C43FF0200D51C43346093
:100430000E4E0C3634684F689C43BF0200D51C43F7
:100440003460521C102AFFF451AFBDE8F88F000051
:1004500044380240003001400000024000040240E5
:1004600000080240000C024000100240003C014025
:100470000148806870470000000000200248816841
:100480000278114481607047000000200B4810B5CD
:10049000016841F400710160016841F4806101600C
:1004A000016841F480710160032000F06FF80020C2
:1004B00000F006F800F024F8002010BD003C0240D7
:1004C00070B50D4D04464FF47A712878B1FBF0F009
:1004D0000A490968B1FBF0F000F0E4FA48B9102CC1
:1004E00007D200222146501E00F030F800206C6038
:1004F00070BD012070BD0000000000200C00002035
:100500000A4808B5016841F480410160006800F4C0
:10051000804000900548001F016841F08051016053
:10052000006800F08050009008BD00004438024090
:10053000002809DB00F01F020121914040098000E2
:1005400000F1E020C0F8001170470000F0B40E4B3D
:100550001B680C46C3F30223C3F10705042D00D921
:100560000425191D072901D2002300E0DB1E012606
:1005700006FA05F1491E214099409E40761E16401C
:100580003143F0BC00F033BB0CED00E0064900F055
:10059000070208684FF6FF03184040EA0220034AAA
:1005A00010430860704700000CED00E00000FA0501
:1005B0002DE9F0470E46050065D0DFF81481D8F824
:1005C0000000F7B200F00F00B04207D288F80070C8
:1005D000D8F8000000F00F00B04254D128683D4C1C
:1005E000810712D5400703D5206840F4E050206011
:1005F0002878000703D5206840F460402060206818
:10060000A96820F0F000084320602878C0072DD0AA
:10061000304968680839012812D0022813D003280D
:1006200011D00968890700292DDA216821F003011A
:1006300001432160FFF71CFF814641F2883A0EE03A
:1006400009688903EFE709688901ECE7FFF710FF04
:10065000A0EB0901514502D90320BDE8F0872068CD
:10066000696800F00C00B0EB810FEFD1D8F80010F2
:10067000404601F00F01B14207D90770006800F051
:100680000F00B04201D00120E7E72878400705D5E8
:100690002068E96820F4E0500843206028780007CB
:1006A00006D52068296920F4604040EAC100206036
:1006B00000F018F82168084AC1F30311515CC840E2
:1006C0000649086006480068FFF7FAFE0020C4E704
:1006D000003C0240083802403A0C00080C000020A0
:1006E00004000020154810B5006810F00C021448F2
:1006F00013D01449042A0FD0082A0ED10F4C241FFE
:100700002268236802F03F025B0207D52068C0F32D
:100710008810A0FB010106E0084610BD2168C1F366
:100720008811A1FB00010023FFF752FD2168C1F3EE
:100730000141491C4900B0FBF1F010BD08380240EE
:100740000024F40040787D012DE9F84F040076D0B4
:100750002078DFF838A3CE4DC00749D0DAF8001072
:100760005046C1F38101012908D00068C0F381001F
:1007700002280AD1281D0068400206D52868800397
:1007800036D560680028E2D032E06068B0F5803F7E
:1007900010D0B0F5A02F286810D020F48030286049
:1007A000286820F4802028606068A0B1FFF760FE10
:1007B00006460CE0286840F48030F4E740F48020DE
:1007C0002860F7E7FFF754FE801B642873D8286879
:1007D0008003F7D50CE0FFF74BFE064605E000BFAF
:1007E000FFF746FE801B6428F0D828688003F7D402
:1007F0002078DFF8A08280074FF000093ED5DAF8B4
:100800000010504611F00C0F09D00068C0F38100B1
:1008100002280BD19D48001F0068400206D42868BA
:10082000800715D5E068012809D111E0E068B8B16A
:100830000120C8F80000FFF71BFE064605E020E196
:10084000FFF716FE801B0228C0D828688007F7D55E
:100850002868216920F0F80040EAC10028600DE016
:10086000C8F80090FFF704FE064604E0FFF700FE1C
:10087000801B02281FD828688007F7D4207800073B
:1008800022D5824E844861696C3671B101210160C4
:10089000FFF7EEFD074604E0FFF7EAFDC01B022864
:1008A00009D830688007F7D50EE0C0F80090FFF750
:1008B000DFFD074605E082E0FFF7DAFDC01B0228F6
:1008C0007DD830688007F7D42078400768D5DFF8F6
:1008D000BCB100270BF1380BDBF80000C0000BD4D3
:1008E000DBF8001041F08051CBF80010DBF800007D
:1008F000012700F080500090684E3068C00510D489
:10090000306840F480703060FFF7B2FD009005E081
:10091000FFF7AEFD0099401A022850D83068C00594
:10092000F6D55A4EA068683601280FD005283068E1
:1009300010D020F001003060306820F004003060FA
:10094000A068B8B1FFF794FD00900FE0306840F068
:100950000100F4E740F004003060F7E7FFF788FD9E
:100960000099411A41F28830814266D83068800788
:10097000F4D50EE0FFF77CFD009007E0FFF778FD6F
:100980000099411A41F28830814256D83068800778
:10099000F4D42FB1DBF8001021F08051CBF8001017
:1009A000A069D0B3DAF800205146C2F38102022ACE
:1009B0004AD00228484607D0C8F8600000E03CE072
:1009C000FFF756FD04463BE04746C8F86000FFF7D6
:1009D0004FFD064605E000BFFFF74AFD801B0228D9
:1009E0002BD828688001F7D4D4E907010843A16A0D
:1009F0002B4A490802EB0141626A41EA821108432D
:100A000094F82C1040EA01612048001F0160012089
:100A10003866FFF72DFD044605E034E0FFF728FDBA
:100A2000001B022809D828688001F7D52BE000BFF9
:100A3000FFF71EFD001B022802D90320BDE8F88F36
:100A400028688001F4D41EE00128F7D00868E26924
:100A500000F48001914214D1226A00F03F019142DA
:100A60000FD147F6C071626A0140914209D1A26A72
:100A700000F44031914204D1E16A00F07060884294
:100A800001D00120DAE70020D8E700000838024052
:100A90000038024000004742800E4742007000408C
:100AA0000000FFFF10B5401EB0F1807F01D3012090
:100AB00010BD4FF0E02460610F21601700F097F83F
:100AC0000020A06107202061002010BDFEE700008B
:100AD00000B587B014216846FFF7B2FB16480168DD
:100AE00041F010010160016801F0100105910168F9
:100AF00041F080010160016801F080010591016809
:100B000041F0010101600068694600F001000590B4
:100B10002020009009480190022002900848FFF729
:100B2000DDFB002211461720FFF710FD1720FFF70D
:100B3000FFFC07B000BD000030380240000031105B
:100B400000100240FEE7704770477047FFF796BC01
:100B500030B593B030216846FFF772FB14210CA822
:100B6000FFF76EFB18480025016841F080510160D5
:100B7000006800F0805011901448016841F4404131
:100B800001600068022400F44040119001200390AD
:100B900010200490009406940820CDE907506420AA
:100BA000CDE9090404200B906846FFF7CDFD0CA9A0
:100BB0000F2081E83100E002CDE90F0503210CA8E8
:100BC000FFF7F6FC13B030BD403802400070004023
:100BD0000548016841F47001016003494FF000606D
:100BE000803908607047000088ED00E0FEE70907E3
:100BF000090E002804DB00F1E02080F800147047A3
:100C000000F00F0000F1E02080F8141D704702E0B2
:100C100008C8121F08C1002AFAD170477047002087
:100C200001E001C1121F002AFBD17047FFF72EFC23
:100C3000FFF78EFFFFF74CFFFEE70000000000000B
:100C40000000010203040607080900006C0C0008FC
:100C500000000020100000000E0C00087C0C0008B2
:100C600010000020000400001E0C0008010000001D
:0C0C700010000000000000000024F40050
:040000050800019955
:00000001FF
